:030000000209FDF5
:0C09FD00787FE4F6D8FD758114020A44EE
:100B1500C0F9A4B0999282F880908883C6A1868E88
:0F0B05000608FFFFFFFFFFFF011000020E0000B8
:10080000E4F514F513F512F511D293C2947589012C
:10081000758CFC758A67D28CD2AFD2A9C3E50F94D0
:10082000E8E50E940340F5E4F50EF50FE514240118
:10083000F514E43513F513E43512F512E43511F52A
:1008400011E47B0AFAF9F8AF14AE13AD12AC111231
:10085000096B74152BF582740B3AF583E493F50854
:10086000E47B0AFAF9F8AF14AE13AD12AC11120919
:100870006BE47B0AFAF9F812096B74152BF5827494
:100880000B3AF583E493F509E47B64FAF9F8AF14C5
:10089000AE13AD12AC1112096BE47B0AFAF9F8122F
:1008A000096B74152BF582740B3AF583E493F50A02
:1008B000E47BE87A03F9F8AF14AE13AD12AC111271
:1008C000096BE47B0AFAF9F812096B74152BF582AF
:1008D000740B3AF583E493F50BE47B107A27F9F86F
:1008E000AF14AE13AD12AC1112096BE47B0AFAF926
:1008F000F812096B74152BF582740B3AF583E493A7
:10090000F50C7BA07A8679017800AF14AE13AD1296
:10091000AC1112096BE47B0AFAF9F812096B741531
:0F0920002BF582740B3AF583E493F50D02081C56
:03000B00020A895D
:100A8900C0E0C0D0758CFC758A67050FE50F700250
:100A9900050E7580FFE51014601D14602714603180
:100AA90014603B1460452405704DC292C291C290F6
:100AB90005108508808040C292C291D290051085A8
:100AC90009808033C292D291C2900510850A808034
:100AD90026C292D291D2900510850B808019D292AC
:100AE900C291C2900510850C80800CD292C291D21D
:0C0AF90090751000850D80D0D0D0E03248
:100A0900020800E493A3F8E493A34003F68001F2FB
:100A190008DFF48029E493A3F85407240CC8C333EE
:100A2900C4540F4420C8834004F456800146F6DFBD
:100A3900E4800B0102040810204080900B05E47E3D
:100A4900019360BCA3FF543F30E509541FFEE493B2
:100A5900A360010ECF54C025E060A840B8E493A379
:100A6900FAE493A3F8E493A3C8C582C8CAC583CAA4
:100A7900F0A3C8C582C8CAC583CADFE9DEE780BE5C
:010B140000E0
:10092F0075F008758200EF2FFFEE33FECD33CDCC7F
:10093F0033CCC58233C5829BED9AEC99E582984002
:10094F000CF582EE9BFEED9AFDEC99FC0FD5F0D6DF
:10095F00E4CEFBE4CDFAE4CCF9A88222B800C1B909
:10096F000059BA002DEC8BF084CFCECDFCE5F0CB47
:10097F00F97818EF2FFFEE33FEED33FDEC33FCEB80
:10098F0033FB10D703994004EB99FB0FD8E5E4F93B
:10099F00FA227818EF2FFFEE33FEED33FDEC33FC28
:1009AF00C933C910D7059BE99A4007EC9BFCE99A1C
:1009BF00F90FD8E0E4C9FAE4CCFB2275F010EF2F61
:1009CF00FFEE33FEED33FDCC33CCC833C810D70761
:1009DF009BEC9AE899400AED9BFDEC9AFCE899F89C
:0E09EF000FD5F0DAE4CDFBE4CCFAE4C8F9222F
:00000001FF
