:03000000020A8071
:0C0A8000787FE4F6D8FD758114020AC7E7
:100B0C00C0F9A4B0999282F880908883C6A1868E91
:080B1C00060FFFFFFFFFFFFFC2
:10080000E4F508F509F50AF50EF50DF50CF50BD232
:1008100093C294758901758CFC758A67D28C308D72
:10082000FDC28D758CFC758A67050AE50A700205A4
:1008300009C394E8E50994035003020942E4F50969
:10084000F50AE50E2401F50EE4350DF50DE4350C41
:10085000F50CE4350BF50BE47B0AFAF9F8AF0EAEB4
:100860000DAD0CAC0B1209EE740C2BF582740B3A27
:10087000F583E493F50FE47B0AFAF9F8AF0EAE0DB9
:10088000AD0CAC0B1209EEE47B0AFAF9F81209EE92
:10089000740C2BF582740B3AF583E493F510E47B2A
:1008A00064FAF9F8AF0EAE0DAD0CAC0B1209EEE424
:1008B0007B0AFAF9F81209EE740C2BF582740B3AE4
:1008C000F583E493F511E47BE87A03F9F8AF0EAE13
:1008D0000DAD0CAC0B1209EEE47B0AFAF9F8120923
:1008E000EE740C2BF582740B3AF583E493F512E465
:1008F0007B107A27F9F8AF0EAE0DAD0CAC0B1209D8
:10090000EEE47B0AFAF9F81209EE740C2BF5827406
:100910000B3AF583E493F5137BA07A86790178008E
:10092000AF0EAE0DAD0CAC0B1209EEE47B0AFAF97A
:10093000F81209EE740C2BF582740B3AF583E493EC
:10094000F5147580FFE50814602114602C146037DD
:1009500014604214604D2405600302081EC292C256
:1009600091C2900508850F8002081EC292C291D2E2
:1009700090050885108002081EC292D291C290058F
:100980000885118002081EC292D291D29005088576
:10099000128002081ED292C291C29005088513806F
:1009A00002081ED292C291D290E4F508851480020A
:0209B000081E1F
:100A8C00020800E493A3F8E493A34003F68001F278
:100A9C0008DFF48029E493A3F85407240CC8C3336B
:100AAC00C4540F4420C8834004F456800146F6DF3A
:100ABC00E4800B0102040810204080900B1CE47EA3
:100ACC00019360BCA3FF543F30E509541FFEE4932F
:100ADC00A360010ECF54C025E060A840B8E493A3F6
:100AEC00FAE493A3F8E493A3C8C582C8CAC583CA21
:100AFC00F0A3C8C582C8CAC583CADFE9DEE780BED9
:010B240000D0
:1009B20075F008758200EF2FFFEE33FECD33CDCCFC
:1009C20033CCC58233C5829BED9AEC99E58298407F
:1009D2000CF582EE9BFEED9AFDEC99FC0FD5F0D65C
:1009E200E4CEFBE4CDFAE4CCF9A88222B800C1B986
:1009F2000059BA002DEC8BF084CFCECDFCE5F0CBC4
:100A0200F97818EF2FFFEE33FEED33FDEC33FCEBFC
:100A120033FB10D703994004EB99FB0FD8E5E4F9B7
:100A2200FA227818EF2FFFEE33FEED33FDEC33FCA4
:100A3200C933C910D7059BE99A4007EC9BFCE99A98
:100A4200F90FD8E0E4C9FAE4CCFB2275F010EF2FDD
:100A5200FFEE33FEED33FDCC33CCC833C810D707DD
:100A62009BEC9AE899400AED9BFDEC9AFCE899F818
:0E0A72000FD5F0DAE4CDFBE4CCFAE4C8F922AB
:00000001FF
