:0809C5000E0C0D090B030706DF
:0D09AC007F687E017D007C0012093D80FE09
:0E099D007FC87E00EF1FAC0670011E4C70F686
:0109AB002229
:08093D008F0B8E0A8D098C0856
:10094500E4F50CF510F50FF50EF50D7FEC7E0FFDBA
:10095500FCAB0BAA0AA909A808120800E47B687A6F
:1009650001F9F812088B8F108E0F8D0E8C0D780DF6
:1009750074FF12091FEC4D4E4F6019AD905305F0F1
:10098500E50C9009C59342058D90050C530C071293
:07099500099D80DA43900F79
:01099C002238
:030000000209B939
:0C09B900787FE4F6D8FD7581100209ACCF
:10080000E88FF0A4CC8BF0A42CFCE98EF0A42CFC97
:100810008AF0EDA42CFCEA8EF0A4CDA8F08BF0A415
:100820002DCC3825F0FDE98FF0A42CCD35F0FCEB74
:100830008EF0A4FEA9F0EB8FF0A4CFC5F02ECD3939
:0F084000FEE43CFCEAA42DCE35F0FDE43CFC22A6
:10084F0075F008758200EF2FFFEE33FECD33CDCC60
:10085F0033CCC58233C5829BED9AEC99E5829840E3
:10086F000CF582EE9BFEED9AFDEC99FC0FD5F0D6C0
:10087F00E4CEFBE4CDFAE4CCF9A88222B800C1B9EA
:10088F000059BA002DEC8BF084CFCECDFCE5F0CB28
:10089F00F97818EF2FFFEE33FEED33FDEC33FCEB61
:1008AF0033FB10D703994004EB99FB0FD8E5E4F91C
:1008BF00FA227818EF2FFFEE33FEED33FDEC33FC09
:1008CF00C933C910D7059BE99A4007EC9BFCE99AFD
:1008DF00F90FD8E0E4C9FAE4CCFB2275F010EF2F42
:1008EF00FFEE33FEED33FDCC33CCC833C810D70742
:1008FF009BEC9AE899400AED9BFDEC9AFCE899F87D
:0E090F000FD5F0DAE4CDFBE4CCFAE4C8F9220F
:10091D007401FF3395E0FEFDFC080808E6CF2FF6C5
:10092D0018E6CE3EF618E6CD3DF618E6CC3CF6229E
:00000001FF
