:030000000208A251
:0C08A200787FE4F6D8FD7581080208E9B3
:03094300010800A8
:10092E00C294C293D2AFD2A9758901D28C758CFCB8
:05093E00758A1880FE1F
:03000B00020800E8
:0D080000C0E0C083C082C0D075D000C00031
:10080D00758CFC758A187580FFE508B40800507A60
:10081D00900824F828287302083C0208490208565B
:10082D0002085C02086402087102087E02088BC28D
:10083D0092C291C29005087580FF804EC292C291FE
:10084D00D29005087580998041C292D291800CC2D8
:10085D0092D291D2908006D292C291C29005087523
:10086D0080008026D292C291D29005087580818039
:10087D0019D292D291C29005087580C3800CD29284
:0A088D00D291D2907508007580E743
:0B089700D000D0D0D082D083D0E0325F
:1008AE0002092EE493A3F8E493A34003F68001F229
:1008BE0008DFF48029E493A3F85407240CC8C3334B
:1008CE00C4540F4420C8834004F456800146F6DF1A
:1008DE00E4800B0102040810204080900943E47E5E
:1008EE00019360BCA3FF543F30E509541FFEE4930F
:1008FE00A360010ECF54C025E060A840B8E493A3D6
:10090E00FAE493A3F8E493A3C8C582C8CAC583CA00
:10091E00F0A3C8C582C8CAC583CADFE9DEE780BEB8
:0109460000B0
:00000001FF
