:03000000020A1CD5
:0C0A1C00787FE4F6D8FD75810A020A63B9
:10092C00FFFFFFFFFFFFFFFFFF7FFFFFFFFFFF7FCB
:10093C00FF3F7F7F7F7F7F3FFF1F3F3F3F3F3F1F3B
:10094C00FF0F9F9F9F9F9F0FFF87CFCFCFCFCF874B
:10095C00FFC3E7E7E7E7E7C3FFE1737373F3F3E183
:10096C00FF7039393979F9F0FF381C1C1C3C7CF8C4
:10097C00FF9C0E0E0E1E3E7CFFCE0707070F1F3E80
:10098C00FF67030303070F9FFF330101010387CFA9
:10099C00FF9900000081C3E7FFCC808080C0E1F3A9
:1009AC00FFE6C0C0C0E0F0F9FF736060607078FCD7
:1009BC00FF39303030383C7EFF9C9898989C1E3F15
:1009CC00FFCECCCCCCCE0F1FFF6766666667070FD9
:1009DC00FF33333333330387FF999999999981C343
:1009EC00FFCCCCCCCCCCC0E1FFE6E6E6E6E6E0F012
:1009FC00FFF3F3F3F3F3F0F8FFF9F9F9F9F9F8FC75
:100A0C00FFFCFCFCFCFCFCFEFFFEFEFEFEFEFEFF03
:090ABD00010800010900010A0012
:100AA800C293C294D2AFD2A9758901D28C758CFC3D
:050AB800758A1880FEA4
:03000B00020800E8
:10080000C0E0C0F0C083C082C0D075D000C0007509
:100810008CFC758A187580FFE50AB4080040030255
:100820000900900829F82828730208410208590293
:10083000087102088802089F0208B60208CD020863
:10084000E4C292C291C290050AE50875F008A4249A
:100850002CF582E434090208FAC292C291D29005C2
:100860000AE50875F008A4242DF582E4340902088D
:10087000FAC292D291C290050AE50875F008A42444
:100880002EF582E434098072C292D291D290050A88
:10089000E50875F008A4242FF582E43409805BD2C2
:1008A00092C291C290050AE50875F008A42430F5BB
:1008B00082E434098044D292C291D290050AE508BC
:1008C00075F008A42431F582E43409802DD292D247
:1008D00091C290050AE50875F008A42432F582E477
:1008E00034098016D292D291D290750A00E508752B
:1008F000F008A42433F582E43409F583E493F58009
:100900000509C3E509946474809480401275090058
:100910000508E508941E748094804003750800D093
:0C09200000D0D0D082D083D0F0D0E032E4
:100A2800020AA8E493A3F8E493A34003F68001F232
:100A380008DFF48029E493A3F85407240CC8C333CF
:100A4800C4540F4420C8834004F456800146F6DF9E
:100A5800E4800B0102040810204080900ABDE47E67
:100A6800019360BCA3FF543F30E509541FFEE49393
:100A7800A360010ECF54C025E060A840B8E493A35A
:100A8800FAE493A3F8E493A3C8C582C8CAC583CA85
:100A9800F0A3C8C582C8CAC583CADFE9DEE780BE3D
:010AC600002F
:00000001FF
