:03000000020800F3
:0C080000787FE4F6D8FD758120020847DF
:10091300C0F9A4B0999282F880908883C6A1868E8C
:05092300C1810109FF84
:10088C00D200E4F508C294D293C292C291C2907580
:10089C008CF8758A30D28C758901D2AFD2A9C2A3DB
:1008AC00E50890091393F580A201300001B350F8CC
:1008BC002000180508C3E508940A7480948040034E
:1008CC00E4F508E50890091393F580A201920080E5
:0108DC00D744
:03000B000208DD0B
:1008DD00C0E0C0D075D000C006C007758CF8758A11
:1008ED0030E50925E0FFA2A7E4334FF509FF7E00AF
:1008FD007004C2018007EFF44E7002D201D007D010
:06090D0006D0D0D0E0325C
:10080C0002088CE493A3F8E493A34003F68001F26E
:10081C0008DFF48029E493A3F85407240CC8C333ED
:10082C00C4540F4420C8834004F456800146F6DFBC
:10083C00E4800B0102040810204080900923E47E20
:10084C00019360BCA3FF543F30E509541FFEE493B1
:10085C00A360010ECF54C025E060A840B8E493A378
:10086C00FAE493A3F8E493A3C8C582C8CAC583CAA3
:10087C00F0A3C8C582C8CAC583CADFE9DEE780BE5B
:0109280000CE
:00000001FF
