:080A93000E0C0D090B03070610
:090A89000409000000000108004E
:100A6D00D2AFD2A9D28C758901758CF8758A307F79
:0C0A7D00847E037D007C00120A3C80FE99
:100A3C008F108E0F8D0E8C0DC2AFE47FEC7E0FFDF0
:100A4C00FCAB10AA0FA90EA80D120800E47B687A63
:100A5C0001F9F812088B8F0C8E0B8D0A8C09D2AF12
:010A6C002267
:03000B000209BA2D
:1009BA00C0E0C0F0C083C082C0D075D000C000C003
:0D09CA0001C002C003C004C005C006C00784
:1009D700758CF8758A30E4FFFEFDFCAB0CAA0BA9F9
:1009E7000AA809C312091D602EAF905307F0E50846
:1009F700900A939342078F900508530807E50C2444
:100A0700FFF50CE50B34FFF50BE50A34FFF50AE5B6
:0A0A17000934FFF509800343900F36
:100A2100D007D006D005D004D003D002D001D00029
:0B0A3100D0D0D082D083D0F0D0E032D3
:0300000002092EC4
:0C092E00787FE4F6D8FD75811002097591
:10080000E88FF0A4CC8BF0A42CFCE98EF0A42CFC97
:100810008AF0EDA42CFCEA8EF0A4CDA8F08BF0A415
:100820002DCC3825F0FDE98FF0A42CCD35F0FCEB74
:100830008EF0A4FEA9F0EB8FF0A4CFC5F02ECD3939
:0F084000FEE43CFCEAA42DCE35F0FDE43CFC22A6
:10084F0075F008758200EF2FFFEE33FECD33CDCC60
:10085F0033CCC58233C5829BED9AEC99E5829840E3
:10086F000CF582EE9BFEED9AFDEC99FC0FD5F0D6C0
:10087F00E4CEFBE4CDFAE4CCF9A88222B800C1B9EA
:10088F000059BA002DEC8BF084CFCECDFCE5F0CB28
:10089F00F97818EF2FFFEE33FEED33FDEC33FCEB61
:1008AF0033FB10D703994004EB99FB0FD8E5E4F91C
:1008BF00FA227818EF2FFFEE33FEED33FDEC33FC09
:1008CF00C933C910D7059BE99A4007EC9BFCE99AFD
:1008DF00F90FD8E0E4C9FAE4CCFB2275F010EF2F42
:1008EF00FFEE33FEED33FDCC33CCC833C810D70742
:1008FF009BEC9AE899400AED9BFDEC9AFCE899F87D
:0E090F000FD5F0DAE4CDFBE4CCFAE4C8F9220F
:10091D00EB9FF5F0EA9E42F0E99D42F0E89C45F030
:01092D0022A7
:10093A00020A6DE493A3F8E493A34003F68001F25C
:10094A0008DFF48029E493A3F85407240CC8C333BE
:10095A00C4540F4420C8834004F456800146F6DF8D
:10096A00E4800B0102040810204080900A89E47E8A
:10097A00019360BCA3FF543F30E509541FFEE49382
:10098A00A360010ECF54C025E060A840B8E493A349
:10099A00FAE493A3F8E493A3C8C582C8CAC583CA74
:1009AA00F0A3C8C582C8CAC583CADFE9DEE780BE2C
:010A92000063
:00000001FF
