:03000000020B638D
:0C0B6300787FE4F6D8FD75811E020BAA15
:100C0500C0F9A4B0999282F880908883C6A1868E97
:100BEF000609FFFFFFFFFFFF020F000001080004CF
:050BFF001100000000E0
:10093400E4F518F517F516F515FFD293C2947589E9
:1009440001758CFC758A18D28CD2AFD2A9E50864E3
:100954000170FAF508E5182401F518E43517F517C0
:10096400E43516F516E43515F515E47B0AFAF9F8BD
:10097400AF18AE17AD16AC15120A97AF038F19E472
:100984007B0AFAF9F8AF18AE17AD16AC15120A9730
:10099400E47B0AFAF9F8120A97AF038F1AE47B642E
:1009A400FAF9F8AF18AE17AD16AC15120A97E47B36
:1009B4000AFAF9F8120A97AF038F1BE47BE87A036B
:1009C400F9F8AF18AE17AD16AC15120A97E47B0A06
:1009D400FAF9F8120A97AF038F1CE47B107A27F90F
:1009E400F8AF18AE17AD16AC15120A97E47B0AFAE5
:1009F400F9F8120A97AF038F1D7BA07A86790178E4
:100A040000AF18AE17AD16AC15120A97E47B0AFABC
:100A1400F9F8120A97AF038F1E7F05EF3395E0C3F1
:100A240064809480401074192FF8E6700974092FBB
:100A3400F876FF1F80E5EF3395E0C364809480501F
:100A44000302095174192FF8E6900C0593FE7409FA
:070A54002FF8A6061F80DF4A
:03000B00020800E8
:10080000C0E0C083C082C0D075D000C000C004C0AA
:1008100005C006C007758CFC758A180510E51070B8
:1008200002050FC394E8E50F94034009750F0075A6
:1008300010007508017580FFAC11AD12AE13AF1436
:10084000120B29086B00000000088C000000010852
:10085000AC0000000208CC0000000308EC0000001F
:1008600004090C0000000500000921C292C291C2D7
:1008700090E5142401F514E43513F513E43512F56D
:1008800012E43511F511850980020921C292C29145
:10089000D290E5142401F514E43513F513E4351270
:1008A000F512E43511F511850A808075C292D29156
:1008B000C290E5142401F514E43513F513E4351260
:1008C000F512E43511F511850B808055C292D29155
:1008D000D290E5142401F514E43513F513E4351230
:1008E000F512E43511F511850C808035D292C29154
:1008F000C290E5142401F514E43513F513E4351220
:10090000F512E43511F511850D808015D292C29152
:10091000D290751400751300751200751100850EC4
:1009200080D007D006D005D004D000D0D0D082D05F
:0409300083D0E0325E
:100B6F00020934E493A3F8E493A34003F68001F25F
:100B7F0008DFF48029E493A3F85407240CC8C33387
:100B8F00C4540F4420C8834004F456800146F6DF56
:100B9F00E4800B0102040810204080900BEFE47EEC
:100BAF00019360BCA3FF543F30E509541FFEE4934B
:100BBF00A360010ECF54C025E060A840B8E493A312
:100BCF00FAE493A3F8E493A3C8C582C8CAC583CA3D
:100BDF00F0A3C8C582C8CAC583CADFE9DEE780BEF5
:010C040000EF
:100A5B0075F008758200EF2FFFEE33FECD33CDCC52
:100A6B0033CCC58233C5829BED9AEC99E5829840D5
:100A7B000CF582EE9BFEED9AFDEC99FC0FD5F0D6B2
:100A8B00E4CEFBE4CDFAE4CCF9A88222B800C1B9DC
:100A9B000059BA002DEC8BF084CFCECDFCE5F0CB1A
:100AAB00F97818EF2FFFEE33FEED33FDEC33FCEB53
:100ABB0033FB10D703994004EB99FB0FD8E5E4F90E
:100ACB00FA227818EF2FFFEE33FEED33FDEC33FCFB
:100ADB00C933C910D7059BE99A4007EC9BFCE99AEF
:100AEB00F90FD8E0E4C9FAE4CCFB2275F010EF2F34
:100AFB00FFEE33FEED33FDCC33CCC833C810D70734
:100B0B009BEC9AE899400AED9BFDEC9AFCE899F86E
:0E0B1B000FD5F0DAE4CDFBE4CCFAE4C8F92201
:100B2900D083D082E4937012740193700DA3A393C0
:100B3900F8740193F5828883E4737402936C7012DC
:100B49007403936D700C7404936E70067405936F3F
:0A0B590060DDA3A3A3A3A3A380CA39
:00000001FF
