:030000000208DA19
:0C08DA00787FE4F6D8FD75810A02092140
:10096600FFFFFFFFFFFFFFFFC3E7E7E7E7E7C3FF81
:100976009900000081C3E7FF999999999981C3FF6E
:08098600FFFFFFFFFFFFFFFF71
:0909A300010900010A000108002D
:10098E00C293C294D2AFD2A9D28C758901758CFC58
:05099E00758A1880FEBF
:03000B00020800E8
:0D080000C0E0C083C082C0D075D000C00031
:10080D00758CFC758A187580FFE508B408004003E7
:10081D000208B0900827F828287302083F02084CF8
:10082D0002085902086602087302088002088D0248
:10083D00089FC292C291C290E509900966804CC290
:10084D0092C291D290E509900967803FC292D291F0
:10085D00C290E5099009688032C292D291D290E59A
:10086D00099009698025D292C291C290E50990093B
:10087D006A8018D292C291D290E50990096B800BD3
:10088D00D292D291C290E50990096C93F58005083A
:10089D008011D292D291D290E50990096D93F58095
:1008AD00750800050AC3E50A94FA74809480401215
:1008BD000509750A00E5099420748094804003753C
:0208CD00090020
:0B08CF00D000D0D0D082D083D0E03227
:1008E60002098EE493A3F8E493A34003F68001F291
:1008F60008DFF48029E493A3F85407240CC8C33313
:10090600C4540F4420C8834004F456800146F6DFE1
:10091600E4800B01020408102040809009A3E47EC5
:10092600019360BCA3FF543F30E509541FFEE493D6
:10093600A360010ECF54C025E060A840B8E493A39D
:10094600FAE493A3F8E493A3C8C582C8CAC583CAC8
:10095600F0A3C8C582C8CAC583CADFE9DEE780BE80
:0109AC00004A
:00000001FF
